{
  "_format": "hh-sol-artifact-1",
  "contractName": "Notes",
  "sourceName": "contracts/Notes.sol",
  "abi": [
    {
      "inputs": [
        {
          "internalType": "string",
          "name": "text",
          "type": "string"
        }
      ],
      "name": "addNotes",
      "outputs": [],
      "stateMutability": "nonpayable",
      "type": "function"
    },
    {
      "inputs": [],
      "name": "showNotes",
      "outputs": [
        {
          "components": [
            {
              "internalType": "string",
              "name": "myNote",
              "type": "string"
            },
            {
              "internalType": "uint256",
              "name": "timestamp",
              "type": "uint256"
            }
          ],
          "internalType": "struct Notes.Note[]",
          "name": "",
          "type": "tuple[]"
        }
      ],
      "stateMutability": "view",
      "type": "function"
    }
  ],
  "bytecode": "0x608060405234801561001057600080fd5b50610845806100206000396000f3fe608060405234801561001057600080fd5b50600436106100365760003560e01c8063118f295c1461003b578063c2bb71a914610059575b600080fd5b610043610075565b604051610050919061037d565b60405180910390f35b610073600480360381019061006e91906104e8565b610170565b005b60606000805480602002602001604051908101604052809291908181526020016000905b8282101561016757838290600052602060002090600202016040518060400160405290816000820180546100cc90610560565b80601f01602080910402602001604051908101604052809291908181526020018280546100f890610560565b80156101455780601f1061011a57610100808354040283529160200191610145565b820191906000526020600020905b81548152906001019060200180831161012857829003601f168201915b5050505050815260200160018201548152505081526020019060010190610099565b50505050905090565b6000604051806040016040528083815260200142815250908060018154018082558091505060019003906000526020600020906002020160009091909190915060008201518160000190816101c5919061073d565b5060208201518160010155505050565b600081519050919050565b600082825260208201905092915050565b6000819050602082019050919050565b600081519050919050565b600082825260208201905092915050565b60005b8381101561023b578082015181840152602081019050610220565b60008484015250505050565b6000601f19601f8301169050919050565b600061026382610201565b61026d818561020c565b935061027d81856020860161021d565b61028681610247565b840191505092915050565b6000819050919050565b6102a481610291565b82525050565b600060408301600083015184820360008601526102c78282610258565b91505060208301516102dc602086018261029b565b508091505092915050565b60006102f383836102aa565b905092915050565b6000602082019050919050565b6000610313826101d5565b61031d81856101e0565b93508360208202850161032f856101f1565b8060005b8581101561036b578484038952815161034c85826102e7565b9450610357836102fb565b925060208a01995050600181019050610333565b50829750879550505050505092915050565b600060208201905081810360008301526103978184610308565b905092915050565b6000604051905090565b600080fd5b600080fd5b600080fd5b600080fd5b7f4e487b7100000000000000000000000000000000000000000000000000000000600052604160045260246000fd5b6103f582610247565b810181811067ffffffffffffffff82111715610414576104136103bd565b5b80604052505050565b600061042761039f565b905061043382826103ec565b919050565b600067ffffffffffffffff821115610453576104526103bd565b5b61045c82610247565b9050602081019050919050565b82818337600083830152505050565b600061048b61048684610438565b61041d565b9050828152602081018484840111156104a7576104a66103b8565b5b6104b2848285610469565b509392505050565b600082601f8301126104cf576104ce6103b3565b5b81356104df848260208601610478565b91505092915050565b6000602082840312156104fe576104fd6103a9565b5b600082013567ffffffffffffffff81111561051c5761051b6103ae565b5b610528848285016104ba565b91505092915050565b7f4e487b7100000000000000000000000000000000000000000000000000000000600052602260045260246000fd5b6000600282049050600182168061057857607f821691505b60208210810361058b5761058a610531565b5b50919050565b60008190508160005260206000209050919050565b60006020601f8301049050919050565b600082821b905092915050565b6000600883026105f37fffffffffffffffffffffffffffffffffffffffffffffffffffffffffffffffff826105b6565b6105fd86836105b6565b95508019841693508086168417925050509392505050565b6000819050919050565b600061063a61063561063084610291565b610615565b610291565b9050919050565b6000819050919050565b6106548361061f565b61066861066082610641565b8484546105c3565b825550505050565b600090565b61067d610670565b61068881848461064b565b505050565b5b818110156106ac576106a1600082610675565b60018101905061068e565b5050565b601f8211156106f1576106c281610591565b6106cb846105a6565b810160208510156106da578190505b6106ee6106e6856105a6565b83018261068d565b50505b505050565b600082821c905092915050565b6000610714600019846008026106f6565b1980831691505092915050565b600061072d8383610703565b9150826002028217905092915050565b61074682610201565b67ffffffffffffffff81111561075f5761075e6103bd565b5b6107698254610560565b6107748282856106b0565b600060209050601f8311600181146107a75760008415610795578287015190505b61079f8582610721565b865550610807565b601f1984166107b586610591565b60005b828110156107dd578489015182556001820191506020850194506020810190506107b8565b868310156107fa57848901516107f6601f891682610703565b8355505b6001600288020188555050505b50505050505056fea2646970667358221220dcc5a322ee5ad6556eee05c414a58065711e63cd97a435b6e7209e7c480bea7364736f6c63430008130033",
  "linkReferences": {},
  "deployedLinkReferences": {}
}