{
  "_format": "hh-sol-artifact-1",
  "contractName": "Notes",
  "sourceName": "contracts/Notes.sol",
  "abi": [
    {
      "inputs": [
        {
          "internalType": "string",
          "name": "text",
          "type": "string"
        }
      ],
      "name": "addNote",
      "outputs": [],
      "stateMutability": "nonpayable",
      "type": "function"
    },
    {
      "inputs": [
        {
          "internalType": "uint256",
          "name": "_ind",
          "type": "uint256"
        }
      ],
      "name": "deleteNote",
      "outputs": [],
      "stateMutability": "nonpayable",
      "type": "function"
    },
    {
      "inputs": [
        {
          "internalType": "uint256",
          "name": "_ind",
          "type": "uint256"
        },
        {
          "internalType": "string",
          "name": "text",
          "type": "string"
        }
      ],
      "name": "editNote",
      "outputs": [],
      "stateMutability": "nonpayable",
      "type": "function"
    },
    {
      "inputs": [],
      "name": "showNotes",
      "outputs": [
        {
          "components": [
            {
              "internalType": "uint256",
              "name": "index",
              "type": "uint256"
            },
            {
              "internalType": "string",
              "name": "myNote",
              "type": "string"
            },
            {
              "internalType": "uint256",
              "name": "timestamp",
              "type": "uint256"
            }
          ],
          "internalType": "struct Notes.Note[]",
          "name": "",
          "type": "tuple[]"
        }
      ],
      "stateMutability": "view",
      "type": "function"
    }
  ],
  "bytecode": "0x608060405234801561001057600080fd5b50610d70806100206000396000f3fe608060405234801561001057600080fd5b506004361061004c5760003560e01c8063118f295c1461005157806365bed09a1461006f578063a4edff471461008b578063c47177f4146100a7575b600080fd5b6100596100c3565b60405161006691906105b8565b60405180910390f35b6100896004803603810190610084919061074f565b6101c8565b005b6100a560048036038101906100a091906107ab565b610229565b005b6100c160048036038101906100bc91906107f4565b6102a3565b005b60606000805480602002602001604051908101604052809291908181526020016000905b828210156101bf57838290600052602060002090600302016040518060600160405290816000820154815260200160018201805461012490610850565b80601f016020809104026020016040519081016040528092919081815260200182805461015090610850565b801561019d5780601f106101725761010080835404028352916020019161019d565b820191906000526020600020905b81548152906001019060200180831161018057829003601f168201915b50505050508152602001600282015481525050815260200190600101906100e7565b50505050905090565b80600083815481106101dd576101dc610881565b5b906000526020600020906003020160010190816101fa9190610a5c565b5042600083815481106102105761020f610881565b5b9060005260206000209060030201600201819055505050565b6000604051806060016040528060008054905081526020018381526020014281525090806001815401808255809150506001900390600052602060002090600302016000909190919091506000820151816000015560208201518160010190816102939190610a5c565b5060408201518160020155505050565b60008190505b60016000805490506102bb9190610b5d565b8110156103515760006001826102d19190610b91565b815481106102e2576102e1610881565b5b90600052602060002090600302016000828154811061030457610303610881565b5b906000526020600020906003020160008201548160000155600182018160010190816103309190610bdb565b5060028201548160020155905050808061034990610cc3565b9150506102a9565b50600080548061036457610363610d0b565b5b600190038181906000526020600020906003020160008082016000905560018201600061039191906103a0565b60028201600090555050905550565b5080546103ac90610850565b6000825580601f106103be57506103dd565b601f0160209004906000526020600020908101906103dc91906103e0565b5b50565b5b808211156103f95760008160009055506001016103e1565b5090565b600081519050919050565b600082825260208201905092915050565b6000819050602082019050919050565b6000819050919050565b61043c81610429565b82525050565b600081519050919050565b600082825260208201905092915050565b60005b8381101561047c578082015181840152602081019050610461565b60008484015250505050565b6000601f19601f8301169050919050565b60006104a482610442565b6104ae818561044d565b93506104be81856020860161045e565b6104c781610488565b840191505092915050565b60006060830160008301516104ea6000860182610433565b50602083015184820360208601526105028282610499565b91505060408301516105176040860182610433565b508091505092915050565b600061052e83836104d2565b905092915050565b6000602082019050919050565b600061054e826103fd565b6105588185610408565b93508360208202850161056a85610419565b8060005b858110156105a657848403895281516105878582610522565b945061059283610536565b925060208a0199505060018101905061056e565b50829750879550505050505092915050565b600060208201905081810360008301526105d28184610543565b905092915050565b6000604051905090565b600080fd5b600080fd5b6105f781610429565b811461060257600080fd5b50565b600081359050610614816105ee565b92915050565b600080fd5b600080fd5b7f4e487b7100000000000000000000000000000000000000000000000000000000600052604160045260246000fd5b61065c82610488565b810181811067ffffffffffffffff8211171561067b5761067a610624565b5b80604052505050565b600061068e6105da565b905061069a8282610653565b919050565b600067ffffffffffffffff8211156106ba576106b9610624565b5b6106c382610488565b9050602081019050919050565b82818337600083830152505050565b60006106f26106ed8461069f565b610684565b90508281526020810184848401111561070e5761070d61061f565b5b6107198482856106d0565b509392505050565b600082601f8301126107365761073561061a565b5b81356107468482602086016106df565b91505092915050565b60008060408385031215610766576107656105e4565b5b600061077485828601610605565b925050602083013567ffffffffffffffff811115610795576107946105e9565b5b6107a185828601610721565b9150509250929050565b6000602082840312156107c1576107c06105e4565b5b600082013567ffffffffffffffff8111156107df576107de6105e9565b5b6107eb84828501610721565b91505092915050565b60006020828403121561080a576108096105e4565b5b600061081884828501610605565b91505092915050565b7f4e487b7100000000000000000000000000000000000000000000000000000000600052602260045260246000fd5b6000600282049050600182168061086857607f821691505b60208210810361087b5761087a610821565b5b50919050565b7f4e487b7100000000000000000000000000000000000000000000000000000000600052603260045260246000fd5b60008190508160005260206000209050919050565b60006020601f8301049050919050565b600082821b905092915050565b6000600883026109127fffffffffffffffffffffffffffffffffffffffffffffffffffffffffffffffff826108d5565b61091c86836108d5565b95508019841693508086168417925050509392505050565b6000819050919050565b600061095961095461094f84610429565b610934565b610429565b9050919050565b6000819050919050565b6109738361093e565b61098761097f82610960565b8484546108e2565b825550505050565b600090565b61099c61098f565b6109a781848461096a565b505050565b5b818110156109cb576109c0600082610994565b6001810190506109ad565b5050565b601f821115610a10576109e1816108b0565b6109ea846108c5565b810160208510156109f9578190505b610a0d610a05856108c5565b8301826109ac565b50505b505050565b600082821c905092915050565b6000610a3360001984600802610a15565b1980831691505092915050565b6000610a4c8383610a22565b9150826002028217905092915050565b610a6582610442565b67ffffffffffffffff811115610a7e57610a7d610624565b5b610a888254610850565b610a938282856109cf565b600060209050601f831160018114610ac65760008415610ab4578287015190505b610abe8582610a40565b865550610b26565b601f198416610ad4866108b0565b60005b82811015610afc57848901518255600182019150602085019450602081019050610ad7565b86831015610b195784890151610b15601f891682610a22565b8355505b6001600288020188555050505b505050505050565b7f4e487b7100000000000000000000000000000000000000000000000000000000600052601160045260246000fd5b6000610b6882610429565b9150610b7383610429565b9250828203905081811115610b8b57610b8a610b2e565b5b92915050565b6000610b9c82610429565b9150610ba783610429565b9250828201905080821115610bbf57610bbe610b2e565b5b92915050565b600081549050610bd481610850565b9050919050565b818103610be9575050610cc1565b610bf282610bc5565b67ffffffffffffffff811115610c0b57610c0a610624565b5b610c158254610850565b610c208282856109cf565b6000601f831160018114610c4f5760008415610c3d578287015490505b610c478582610a40565b865550610cba565b601f198416610c5d876108b0565b9650610c68866108b0565b60005b82811015610c9057848901548255600182019150600185019450602081019050610c6b565b86831015610cad5784890154610ca9601f891682610a22565b8355505b6001600288020188555050505b5050505050505b565b6000610cce82610429565b91507fffffffffffffffffffffffffffffffffffffffffffffffffffffffffffffffff8203610d0057610cff610b2e565b5b600182019050919050565b7f4e487b7100000000000000000000000000000000000000000000000000000000600052603160045260246000fdfea26469706673582212201df4d8ff20775b01bfabf08557bf374cfa2c22a1313b0bb2c0b5e5f740e1915864736f6c63430008130033",
  "linkReferences": {},
  "deployedLinkReferences": {}
}